:020000021000EC
:10C0000060BD0020019C0200299C02002B9C0200C4
:10C010002D9C02002F9C0200319C020000000000B9
:10C0200000000000000000000000000025A4020045
:10C03000359C02000000000045A40200399C02006B
:10C040003B9C02003B9C0200B9C902003B9C0200E1
:10C050003B9C02003B9C02003B9C02003B9C02007C
:10C060003B9C02003B9C02003B9C02003B9C02006C
:10C070003B9C02003B9C02003B9C02003B9C02005C
:10C080003B9C02002DA202003B9C02003B9C020054
:10C090003B9C02003B9C020089F601003B9C020095
:10C0A0003B9C02003B9C02003B9C02003B9C02002C
:10C0B0003B9C02003B9C02000000000000000000CE
:10C0C0003B9C02003B9C02003B9C02003B9C02000C
:10C0D0003B9C02003B9C02003B9C020000000000D5
:10C0E0000000000000000000000000000000000050
:10C0F0000000000000000000000000000000000040
:10C10000000000000000000000000000000000002F
:10C11000000000000000000000000000000000001F
:10C40000044B05481B1A062B02D9044B03B11847ED
:10C41000704700BF573A0020543A00200000000047
:10C4200005490648091A891001EBD171491002D05B
:10C43000034B03B118477047543A0020543A002088
:10C440000000000010B5064C237843B9FFF7D8FF71
:10C45000044B13B10448AFF300800123237010BDD7
:10C46000543A002000000000A845030008B5084B1E
:10C470001BB108490848AFF300800848036813B9A6
:10C48000BDE80840CCE7064B002BF9D09847F7E70A
:10C4900000000000583A0020A8450300503A002050
:10C4A00000000000154B002B08BF134B9D46A3F561
:10C4B000803A00218B460F461348144A121A11F095
:10C4C0001CFC0F4B002B00D098470E4B002B00D0CC
:10C4D00098470020002104000D000D48002802D0DC
:10C4E0000C48AFF3008011F09DFB2000290010F0F4
:10C4F0001FFC11F063FB00BF0000080060BD0020BE
:10C500000000000000000000543A0020EC4500202C
:10C51000000000000000000037B504461E491F4817
:10C520000FF084FF0DF08AFB1D4902461B480FF0F7
:10C530009DFF3A230622611C184810F087F819491C
:10C5400016480FF054FF0A2294F90710134810F010
:10C5500016F8154911480FF04AFF227A0F482D238B
:10C56000D20804F1090110F04DF80C480FF04CFF0F
:10C570000E49684602F097FC9DE80C0021460C48E5
:10C5800002F086FA18B10B4904480FF04FFF034838
:10C590000FF03AFF03B030BD241B030078400020A9
:10C5A0004A1B0300511B0300501B0300042403001B
:10C5B000B83D0020531B030008B50C4BB3F8B43052
:10C5C00003F080039BB20BB1094909E01E2209491F
:10C5D000012007F06FFE074907480FF027FF0749C2
:10C5E0000548BDE808400FF02BBF00BFF041002018
:10C5F000841B030084380020784000209D1B03002A
:10C60000704770477047000010B5044608F096F96F
:10C610000A22014634480FF090FF344932480FF0A7
:10C62000E6FE631E102B54D8DFE803F0090B11134C
:10C63000151753191B1D47494B4D4F5351002C499A
:10C6400000E02C492848BDE810400FF0F9BE2A4907
:10C65000F8E72A49F6E72A49F4E72A49F2E72A499E
:10C66000F0E72A49EEE72A491F480FF0E9FE294B77
:10C6700093F95521002A1C4603DA27491A480FF07E
:10C68000DFFE94F8573173B1244917480FF0D8FEF4
:10C69000204B154893F857110A220FF02EFF20491E
:10C6A00011480FF0CDFE08F049F91E491E4A014419
:10C6B000BDE810401D4808F075B91D49C2E71D4985
:10C6C000C0E71D49BEE71D49BCE71D49BAE71D4942
:10C6D000B8E71D4904480FF080FE21460A220248AF
:10C6E000BDE810400FF015BF78400020D4250300AE
:10C6F000AB1B0300BB1B0300CB1B0300DC1B0300B5
:10C70000EE1B0300F91B0300031C0300121C0300B3
:10C71000231C0300F0410020531C0300601C030095
:10C720006A1C030070383900B9C50100703A002056
:10C730007C1C03008A1C0300931C0300A11C030043
:10C74000AE1C0300BC1C0300C71C030008B50DF0A1
:10C7500075FA10F4007118BF012103200DF0CEFB13
:10C76000BDE8084008F040B9F0B5012189B00320C8
:10C770000DF0A2FB4FF4E1314B480FF08FFF642026
:10C780000DF074FA494948480FF05AFE08F0C6F80F
:10C79000474945480FF04AFE07F016FD4549424813
:10C7A0000FF044FE444A6C4602F110066B461068D6
:10C7B0005168254603C50832B2422C46F7D13F4C9A
:10C7C00004AD04F110072A46206861682E4603C6AE
:10C7D0000834BC423546F7D13949132007F09EFD95
:10C7E00001233F223749002007F0A0FE01237F22CA
:10C7F0003549184607F09AFE01233F2233490220AB
:10C8000007F094FE01233F223149032007F08EFEFA
:10C8100001233F222F49042007F088FE01233F22F5
:10C820002D49052007F082FE01233F222B490620D7
:10C8300007F07CFE01233F222949072007F076FEFE
:10C84000002380222749082007F070FE002007F00F
:10C8500095FD254B03220E21052083F8382107F092
:10C860009FFC2248FFF7A8FE01220021204802F089
:10C870005DFC04211E4802F041FD1E491C4802F0E7
:10C8800019FDFA211A4802F061FD1B491B4802F00C
:10C89000A7F80021194802F0ABF8194902480FF037
:10C8A000C5FD09B0F0BD00BF78400020D71C0300D3
:10C8B0007B39030020410300181D0300F91C03000D
:10C8C00041120126A027BE33E034C1332042C433D5
:10C8D00060E5AE33A0F2B133E0FFB433200DB833DE
:10C8E000601ABB3300D6C833F0410020703A0020F4
:10C8F000843A0020E01C030019C50100B83D002067
:10C90000EC1C030072DF704773DF704774DF704701
:10C910000022C2770270704770B51D46C37F0E4675
:10C920001146EA181D2A04460EDC18446A1CE2541B
:10C93000023000F8016C2A4611F0B9F9E27F0232A8
:10C94000AB18E377012070BD002070BD2DE9F041E8
:10C95000002688B007460D4601EBC208344645451F
:10C9600016D0284602F0C9FA102802D0802809D033
:10C970000CE008AA631C02EB44042A8824F8202C4B
:10C98000DCB203E00EB1002017E06E680835E6E780
:10C9900014B966B9012010E0630003F0FE036A4693
:10C9A00003213846FFF7B8FF0028F2D1EBE7102348
:10C9B000324607213846FFF7AFFF08B0BDE8F081E7
:10C9C00007B58DE8060001226946FFF7BFFF03B0F7
:10C9D0005DF804FB82B030B587B08DE806000AAC84
:10C9E00005469DE8030044F8043F02AB83E80500D8
:10C9F00094E8030006AA02E9030002221946284629
:10CA0000FFF7A4FF07B0BDE8304002B0704782B026
:10CA100030B589B08DE806000CAC05469DE80300F2
:10CA200044F8043F02AB83E8050094E8030004AA3D
:10CA300082E803000FAA92E8030008AA02E90300B3
:10CA4000032219462846FFF781FF09B0BDE83040B0
:10CA500002B0704782B030B58BB08DE806000EACE6
:10CA600005469DE8030044F8043F02AB83E8050057
:10CA700094E8030004AA82E8030011A903C906AAE6
:10CA800082E8030013AA92E803000AAA02E903005D
:10CA9000042219462846FFF759FF0BB0BDE8304085
:10CAA00002B0704713B50831044603C901228DE86E
:10CAB000030069462046FFF749FF02B010BD07B5E5
:10CAC000D36800930831936806C9FFF783FF03B06A
:10CAD0005DF804FB7FB5083306460C4693E8030077
:10CAE00001AD85E80300D368009304F10801936861
:10CAF000304606C9FFF78BFF04B070BD70B586B035
:10CB00000C460A990831064603C903AD85E80300BF
:10CB1000083393E8030001AD85E80300D368009370
:10CB200004F108019368304606C9FFF793FF06B089
:10CB300070BD70B501F10C06044630460D4602F09A
:10CB4000DCF9102805D080280BD110232A69152183
:10CB500002E00223324614212046BDE87040FFF770
:10CB6000DBBE002070BD000010B588B069460446E9
:10CB700020220A4802F0B2FBE27F13181D2BC4BF2B
:10CB8000C2F11D02D0B20346CCBF082109216A467A
:10CB90002046FFF7C1FE08B010BD00BF843A002058
:10CBA00013B50446064802F0CBFB02AA012302F8A3
:10CBB000010D0A212046FFF7AFFE02B010BD00BFF5
:10CBC000843A002007B502AA012302F8011D194684
:10CBD000FFF7A2FE03B05DF804FB07B502AA02232B
:10CBE00022F8021D1921FFF797FE03B05DF804FB40
:10CBF00013460A46FF21FFF78FBEC07F704770477C
:10CC000038B50546144631B11F2A06D811F04FF841
:10CC1000EC77012038BD084638BD002038BD002320
:10CC2000C3770370704708B50346FFF771FE012113
:10CC3000002283F8211020219984F420198583F89B
:10CC400020201E21D88483F822205985DA859A85F0
:10CC50001A635A63184608BD4185704780F8201052
:10CC600070478184C284018570470523C90091FB08
:10CC7000F3F189B2D200818492FBF3F20185C28480
:10CC80007047008D7047416370470163704790F8AB
:10CC9000220070470B460146184603F040BC084688
:10CCA00004F0E0BD80F821107047000070B5044624
:10CCB00086B00E46154600211822684611F01DF870
:10CCC00094F820308DF800306846ADF81060ADF86B
:10CCD0001250FFF719FE70B9084802F0A9FDE28D65
:10CCE000268595424FF0010094BF521B921A84F89A
:10CCF0002200E28500E0002006B070BD843A0020EA
:10CD000038B50C4DC185818595F83333C17F05F564
:10CD100045720446FFF7F6FD50B92846FA2102F0A5
:10CD200015FB628DA18C2046BDE83840FFF7BEBFE1
:10CD3000002038BD843A002008B50346FFF7E6FD21
:10CD400030B983F82200034802F083FD012008BDBA
:10CD5000002008BD843A002038B50B88112B04460A
:10CD600012D01B2B24D0102B59D18D7D012D56D1E3
:10CD7000002380F822302A4802F06BFD294628481B
:10CD8000BDE8384002F071BD8988254801F0E7FA16
:10CD9000012844D10021224802F067FD94F8213097
:10CDA000002B3CD0A18D2046BDE83840FFF7A8BF3E
:10CDB0000B7A002B33D180F822304FF4FA711848E7
:10CDC00002F0C4FAA38D23B9636B03B19847002224
:10CDD00005E0E38D4BB1636B03B19847E28DE18CC5
:10CDE0002046BDE83840FFF761BF0D4802F031FD35
:10CDF000236BA3B10EF06AFD01284FF0100002D1A1
:10CE000010F036FF01E00FF0C5F90023226B03722A
:10CE1000036043724260BDE838400FF029BA38BD64
:10CE2000843A002076DF70478CDF704710B50446E7
:10CE30000EF04CFD0128204603D1BDE8104010F053
:10CE400017BFBDE810400FF0A5B9102202801822CC
:10CE5000428000224260826070470000014801F079
:10CE60006FB800BFEC3D0020018042800120704778
:10CE700005238900920091FBF3F192FBF3F201800C
:10CE8000428001207047000013B500230193C8239E
:10CE9000ADF806300388ADF8003043880748ADF898
:10CEA00002300C4601F0A2FD6A4601462046FFF71B
:10CEB000BBFFB0FA80F0400902B010BDB83D0020C1
:10CEC000FFF7E2BF08B508461321FFF7ABFFB0FA42
:10CED00080F0400908BD0000014801F0DAB900BF48
:10CEE000843A002070B50024A6B23146084801F00B
:10CEF000D0F9054628B13146054801F030FA02283C
:10CF000003D00134052CEFD10025284670BD00BFA9
:10CF1000843A0020416070478160704704F0B8BED9
:10CF2000F7B50F888C88102F05460E4602D0112FBA
:10CF300019D038E021461D4801F011FA022832D1FB
:10CF40006B6883B33846FFF771FF0022696802609F
:10CF500042720122027202AA034642F8084D416061
:10CF60001068D86019E02146104801F0F8F902284D
:10CF7000074618D1AB68B3B11420FFF757FFA96873
:10CF800041600022026042720772327A019200947C
:10CF90006A46034603CAD8601961184603B0BDE863
:10CFA000F0400FF065B903B0F0BD00BF843A002037
:10CFB000A2DF7047A3DF7047A4DF7047A5DF70478B
:10CFC000A6DF7047704710B504460FF011FF2046EA
:10CFD00010BD000070B55A4B04461B680361061D66
:10CFE00096B0304601F097FF94F8223013F03201EA
:10CFF00001BF94F8232061F3030261F3071284F860
:10D00000232013F00C0101BF94F8242061F30302E4
:10D0100061F3071284F8242013F030050ED04FF08E
:10D020000003012262F342038DF80630454B1B7862
:10D030008DF8043094F823308DF805301C2200213F
:10D040000FA810F05AFE94F822308DF83C300023DF
:10D050000DB91A4600E001AAADF8083014924FF05D
:10D060000003012262F3420360698DF80A3094F8EC
:10D0700023308DF8083058B103784BB1109011F07F
:10D0800056FE02AB80B2ADF84400ADF846001393F3
:10D09000A37E13B104F11A031293142200210DEBA5
:10D0A000020010F02AFE04F12303069394F82530C1
:10D0B0000596DB0754BFE3890023ADF81C30E389F4
:10D0C000ADF8203005AA04F126030FA90020FFF7D0
:10D0D0006FFF054670BB637E33B30346012262F3E4
:10D0E00042038DF80E3094F82330ADF80C008DF823
:10D0F0000C30154B18680490142229460AA810F029
:10D10000FCFD0223ADF83030ADF8343004AB0A93A7
:10D1100003AB0B930DF1020204F118030AA9284690
:10D120000E93FFF747FF40B9257B2DB921460748ED
:10D1300001F0BAFB284600E0002016B070BD00BF29
:10D14000803A0020281D03002A1D0300603B0020B8
:10D150000B88502B73B505460C4614D0512B2CD19F
:10D160008B79022B03D1436B0BB108319847A3791C
:10D17000012B22D12B6B03B304F10801284602B026
:10D18000BDE870401847CA88C38C9A4205D1866BA7
:10D190001EB1CB890A8A1231B047E2886B8D9A4260
:10D1A0000BD1EB6B4BB1628AADF80620BDF80610CF
:10D1B000284602B0BDE87040184702B070BD0000BC
:10D1C0001422C281104A127880F8242080F823208B
:10D1D00001214FF00102002361F342020373036156
:10D1E00043610383C0F81A30C0F81E3080F8223043
:10D1F00080F82520C38403858385438503634363C7
:10D200008363C363704700BF281D030010B5044B40
:10D2100003600023837183808360FFF7D1FF10BD1B
:10D22000381D030013B504468DE806002346064961
:10D2300043F8041B9DE8030083E805002046FFF740
:10D24000BFFF204602B010BD381D030013B58DE8A6
:10D250000600041D9DE8030084E8050002B010BD2F
:10D260000069704701230373704780F822107047EC
:10D27000C181704790F8253019B1C1816FF3000367
:10D2800001E043F0010380F82530704780F8231057
:10D2900080F82420704781637047C16370470A1C7F
:10D2A00090F82530016318BF012262F3C30380F8B0
:10D2B000253070470A1C90F82530416318BF0122C1
:10D2C00062F3041380F8253070474161704701769E
:10D2D0004276704783839DF800308377BDF8043031
:10D2E0008176C2760384704751F8263F03604B680D
:10D2F00043607047F0B58BB01F469DF844308DF801
:10D3000010309DF848308DF811308DE8060001236B
:10D310004FF0000263F342026846BDF840608DF8AA
:10D320001220002501F0F7FD142229460DEB020022
:10D3300010F0E3FC04AB0DF10E0205A92846CDF870
:10D3400014D00693ADF81C60ADF820600997FFF784
:10D3500031FE0BB0F0BD13B5C4890191A24228BFC4
:10D36000224600230093C18CADF800204FF6FF70D9
:10D370006A46FFF721FE10B9BDF8000000E018462C
:10D3800002B010BD38B5054608460C4611F0CFFC7A
:10D39000214682B22846BDE83840FFF7DCBF07B51A
:10D3A00002AB012203F8011D1946FFF7D4FF03B0B9
:10D3B0005DF804FB07B502AB022223F8021D1946F3
:10D3C000FFF7C9FF03B05DF804FB07B502AB042209
:10D3D00043F8041D1946FFF7BEFF03B05DF804FBD8
:10D3E000FFF7F3BF07B5002300930191ADF80020CC
:10D3F000C18C6A464FF6FF70FFF7E0FD10B9BDF82B
:10D40000000000E0184603B05DF804FB07B50122F8
:10D410000DF10701FFF7E6FF08B19DF8070003B023
:10D420005DF804FB07B502220DF10601FFF7DAFFF4
:10D4300008B1BDF8060003B05DF804FB07B5022291
:10D440000DF10601FFF7CEFF08B1BDF8060003B0ED
:10D450005DF804FB30B5054685B0114801F0A9FF21
:10D46000E0B1688DD0B10223002402940C48ADF8DD
:10D4700008300DF10603039301F0DBFF02AA698D6A
:10D48000FFF79CFD43F20143984202D1ADF80640FC
:10D4900002E008B180B201E0BDF8060005B030BD81
:10D4A000843A002008B590F8222002F0100202F021
:10D4B000FF0322B1FFF7CEFF00F0010008BD1846C0
:10D4C00008BD00002DE9F04190F8223003F0100370
:10D4D0000E4686B0054603F0FF01002B46D0C489F6
:10D4E000944228BF1446FFF7DDFF0746002837D0D7
:10D4F000214801F09EFF01461F4800F064FF0338F9
:10D500001FFA80F89CB31C4801F093FF01461A48AB
:10D5100000F044FF58B3A04543464FF0000128BF38
:10D520002346102202A8ADF8063010F0E6FB0123D6
:10D530008DF80A30EB8CADF808300F4805960DF1E8
:10D540000603049301F075FF02A9FFF739FD28B91E
:10D55000BDF80630E41AA4B21E44D3E7002706E063
:10D56000224631462846FFF7F6FE00E00F463846D1
:10D5700006B0BDE8F08100BF843A002038B505460A
:10D5800008460C4611F0D3FB214682B22846BDE87E
:10D590003840FFF797BF07B502AB012203F8011D22
:10D5A0001946FFF78FFF03B05DF804FB07B502AB28
:10D5B000022223F8021D1946FFF784FF03B05DF82D
:10D5C00004FB07B502AB042243F8041D1946FFF71C
:10D5D00079FF03B05DF804FBFFF7F3BF08B590F8DF
:10D5E000222002F0200202F0FF0322B1FFF732FFF7
:10D5F000C0F3400008BD184608BD00002DE9F04307
:10D6000090F8223003F020030E4687B0054603F061
:10D61000FF01002B41D0C489944228BF1446FFF774
:10D62000DDFF074698B31F4801F003FF014680461F
:10D630001C4800F0C8FE03381FFA80F974B3A145F6
:10D640004B464FF0000128BF2346102202A8ADF838
:10D65000063010F052FB02238DF80A30EB8CADF847
:10D66000083002A90DF10603404604930596FFF722
:10D67000A7FC50B941460C4800F0F4FF28B1BDF8B2
:10D680000630E41AA4B21E44D8E7002706E022467A
:10D6900031462846FFF75FFE00E00F46384607B0E8
:10D6A000BDE8F083843A0020603B002038B5054691
:10D6B00008460C4611F03BFB214682B22846BDE8E5
:10D6C0003840FFF79BBF07B502AB012203F8011DED
:10D6D0001946FFF793FF03B05DF804FB07B502ABF3
:10D6E000022223F8021D1946FFF788FF03B05DF8F8
:10D6F00004FB07B502AB042243F8041D1946FFF7EB
:10D700007DFF03B05DF804FBFFF7F3BF96DF7047C2
:10D7100098DF704799DF704710B5064B044640F814
:10D720001C3B04F05FF92146034801F0D7F820467E
:10D7300010BD00BF501D0300603B002010B5044623
:10D74000FFF7EAFF20460FF053FB204610BD10B54F
:10D7500004460EF0BBF80128204603D1BDE8104076
:10D7600010F086BABDE810400EF014BD0023C3606F
:10D7700003618382C382C362036380F834307047DD
:10D7800010B5074B036000230446837183808360D8
:10D790001C3004F01AF92046FFF7E8FF204610BDC0
:10D7A000501D030013B504468DE8060023460849C2
:10D7B00043F8041B9DE8030083E8050004F11C0006
:10D7C00004F003F92046FFF7D1FF204602B010BD58
:10D7D000501D030038B505460C46043001F09BFB94
:10D7E0000CB9074B1C68AC612946064801F09CF84F
:10D7F00005F11C000121BDE8384004F0EAB800BF83
:10D800007C3A0020603B00200A4600F10C030868C7
:10D81000496803C312891A807047002383827047C6
:10D8200030B5114C85B00546204600F099FB0190BB
:10D83000A86900F062FB0146204600F08DFBA86954
:10D8400000F04FFB04AA012342F8045D0146204684
:10D8500000F0C7FB01990546204600F07DFB281C1F
:10D8600018BF012005B030BDEC3D0020808A00309B
:10D8700018BF01207047806900F033BB808A704771
:10D88000007C70478069704710B592B032230392D4
:10D890000092044605AA0C4800F02EFC062205ABB7
:10D8A00002FB003042F60212834209D09979012925
:10D8B00004D19988914204BF5988E1820633F3E785
:10D8C000012012B010BD00BFEC3D00202DE9F04159
:10D8D000037C9B0705468846164602D40020BDE817
:10D8E000F081806900F0FDFA0146124800F06BFDFE
:10D8F00005F11C07324641460446384604F07EF8DE
:10D90000A86900F0EEFA0022A98AFFF7FFFE0028BE
:10D91000E4D1E11E89B2023996FBF1F6642106FBDF
:10D920000111384604F06FF820EAE07080B2BDE8DB
:10D93000F08100BF843A002007B501220DF10701F4
:10D94000FFF7C4FF08B19DF8070003B05DF804FBC2
:10D9500007B502220DF10601FFF7B8FF08B1BDF8C7
:10D96000060003B05DF804FB07B504220DEB0201CD
:10D97000FFF7ACFF00B1019803B05DF804FB0000B5
:10D980002DE9FF41037C03F008030746884614464F
:10D9900003F0FF00002B54D0B86900F0A2FA014652
:10D9A000294800F010FDC51EADB20023AC42BA8A72
:10D9B000019307F11C0602931DD801234146ADF8DF
:10D9C0000620304622468DF80430ADF80A40CDF8E6
:10D9D0000C8004F013F8B86900F083FA01A9FFF78E
:10D9E00097FE68BB6421304604F00DF80028ACBFF8
:10D9F0002046002022E0053880B2A04228BF204601
:10DA000004234146ADF80620ADF80A002246304610
:10DA10008DF80430CDF80C8003F0F0FFB86900F009
:10DA200060FA01A9FFF774FE50B96421A81E94FBA7
:10DA3000F0F000FB0111304603F0E5FF20EAE07052
:10DA400080B204B0BDE8F081843A002007B502AB93
:10DA5000012203F8011D1946FFF792FF03B05DF89C
:10DA600004FB07B502AB022223F8021D1946FFF79B
:10DA700087FF03B05DF804FB07B502AB042243F84F
:10DA8000041D1946FFF77CFF03B05DF804FBFFF7A8
:10DA9000F3BF00002DE9FF470646806915460F4693
:10DAA00000F01FFA01461C4800F08DFC03381FFAF5
:10DAB00080F92C464FF0000A54B3B06900F011FA17
:10DAC0000146154800F07DFC00B34C454FF00203C1
:10DAD000CDF804A0A0468DF8043028BFC846B38A0C
:10DAE000B069CDF808A0ADF80630ADF80A8003970C
:10DAF00000F0F7F901A9FFF70BFE10B12C1BA0B243
:10DB000007E0C8EB0404A4B24744D5E7132000E0C3
:10DB1000284604B0BDE8F087843A002007B502AB80
:10DB2000012203F8011D1946FFF7B4FF03B05DF8A9
:10DB300004FB07B502AB022223F8021D1946FFF7CA
:10DB4000A9FF03B05DF804FB07B502AB042243F85C
:10DB5000041D1946FFF79EFF03B05DF804FBFFF7B5
:10DB6000F3BF90F83430C16262F3000380F83430C0
:10DB7000704790F83430016362F3410380F8343029
:10DB80007047000070B586B006468069ADF8061093
:10DB900000F0A7F90023049302238DF80C30ADF8B0
:10DBA0001230F38AADF80E30054601240DF106035C
:10DBB000014609488DF80D40059300F002FC38B18C
:10DBC00003A92846FFF7A4FDB0FA80F0400900E061
:10DBD000204606B070BD00BF843A0020037C03F0ED
:10DBE000100303F0FF0213B10121FFF7CBBF104672
:10DBF0007047037C03F0100303F0FF0213B1002110
:10DC0000FFF7C0BF10467047037C03F0200303F00A
:10DC1000FF0213B10221FFF7B5BF10467047037C26
:10DC200003F0200303F0FF0213B10021FFF7AABFA6
:10DC3000104670472DE9FF410B88CF88382B0446EA
:10DC40000D4674D0392B03D0362B40F0E180B9E07B
:10DC50008B7B012B02D0022B32D0D9E0C36A002B80
:10DC600000F0D68090F8342012F0010F0A8A24D0F8
:10DC70001046FFF76CFD0646002800F0C9802A8A8E
:10DC800005F1120110F013F81820FFF760FDE26AA9
:10DC9000426000224272032202722A8A06600392C4
:10DCA0000194029601AA034603CAD860196110685C
:10DCB000586118460EF0DCFAAAE012319847A7E046
:10DCC000036B002B00F0A48090F834208E8812F0B3
:10DCD000020F0A8A24D01046FFF739FD07460028B4
:10DCE00000F096802A8A05F112010FF0E0FF18205B
:10DCF000FFF72DFD226B4260002242720322027266
:10DD00002A8A076003920194029701AA034603CA74
:10DD1000D86019611068586118460EF0A9FA01E040
:10DD200012319847A9893046FFF7F4FC70E017B12B
:10DD300004F11C006AE000F11C064A8A30463946AC
:10DD400003F08FFE95F80E80B8F1010FF0D0B8F116
:10DD5000040F5DD1A06900F0C4F801462E4800F020
:10DD600032FB228DA38A053880B2904228BF10462C
:10DD7000B0B101972A8AADF806306B8AADF80A0077
:10DD80001344ADF80830A069636A8DF804800393EA
:10DD900000F0A7F801A9FFF7BBFC002838D00FE07E
:10DDA0000522029003908DF80420A069ADF806309A
:10DDB00001228DF8052000F094F801A9FFF7A8FCD6
:10DDC000304623E0806900F08CF80146124800F0EC
:10DDD000FAFA0646002FABD104F11C072A8A05F196
:10DDE0001201384603F03DFE238D73B1033E2B8AAA
:10DDF000B6B2013EB34208DBA06900F072F8628D52
:10DE0000A18A92B2FFF782FC10B1384603F041FEBE
:10DE100004B0BDE8F08100BF843A00204FF6FF73E4
:10DE20008380704710B504460C3001F074F8044B41
:10DE300004481C60214600F085FD012010BD00BF94
:10DE40007C3A0020603B002038B5044608480D4667
:10DE500000F080F810B9064800F072F8012322465D
:10DE60002946034800F087F800B1A58038BD00BFFF
:10DE7000EC3D00204FF6FF7301228380C2800381B6
:10DE800070470000064A02600022827382810261AC
:10DE900001214FF6FF728280C1800281704700BF6E
:10DEA000601D030013B503468DE806001C460849B3
:10DEB00044F80C1B9DE80300012184E805004FF69F
:10DEC000FF7218469A80D9801A8102B010BD00BF37
:10DED000601D030080884FF6FF73C01A18BF012031
:10DEE00070478088704782B002AB024643F8041D39
:10DEF0001868C2F8060002B0704782B0D0F8060079
:10DF00000190BDF80430002063F30F00BDF8063027
:10DF100063F31F4002B0704790DF704792DF704795
:10DF200093DF704710B50446043003F04EFD012323
:10DF300023804FF6FF73638000232375204610BDB6
:10DF4000017D10B5044621B9043003F042FD0123E0
:10DF5000237510BD007D704782B0016002B070472C
:10DF6000036800209AB262F30F001B0C63F31F409A
:10DF700082B002B070472DE9F043164685B0071D08
:10DF8000884699460A2201A9044606F10C0538463E
:10DF900003F034FD2A4649464046FFF7BDFFD8B995
:10DFA0004FF47A71384603F02EFD002814DDBDF8D9
:10DFB00004308BB12846DDF8061000F0D1FF05468D
:10DFC00050B1DDF80A00206021683046FFF78BFF72
:10DFD00023880133238000E00025284605B0BDE8F2
:10DFE000F0832DE9F04F89B00746009193460193E5
:10DFF0000DF06CFC01284FF02A0002D10FF038FE22
:10E0000001E00EF0C7F8019B0BEB8303044603937A
:10E0100000254FF00A09019B9D425FD22A22002170
:10E02000204607F104080FF068FE2A2221464046E8
:10E0300003F0E4FC39460098FFF770FF064600281D
:10E040004CD14FF47A71404603F0DDFC002845DDE9
:10E050002388F1B299423AD209FB01F35A46029160
:10E060000493039B9A4230D09046049BD8F800005A
:10E0700004EB030A0432DAF802100592043000F0CF
:10E080006FFF059A0028ECD00AF10201D8F80000D1
:10E09000FFF7BAFB9AF80630DA0601D49B0612D5D0
:10E0A000029B7A8809FB03435B8901339BB293424D
:10E0B00009D8ADF81C30ADF81E20D8F80000079A3A
:10E0C0000099FFF7E1FB0135EDB20136C0E7013BF6
:10E0D00009FB03435B8901333B809CE70DF0F6FBB2
:10E0E0000128204602D10FF0CBFD01E00EF05EF8D2
:10E0F000284609B0BDE8F08F70B51446051D0E46E0
:10E10000284621461A4603F079FC04A93046FFF759
:10E1100007FF40B94FF47A71284603F074FC0028D9
:10E1200001DD208870BD002070BD0B88322B10B53A
:10E13000044611D0332B1BD0302B26D1CB8833B9DA
:10E140008B8923B10A220C31201D03F08AFC201D8B
:10E15000BDE8104003F09DBCCB88002BF7D18A8925
:10E16000002AF4D0013A02EB820252000C320AE09B
:10E17000CB88002BEBD18A89002AE8D0013A02EB48
:10E1800042025200083292B2DDE710BD70DF7047E4
:10E1900071DF70477EDF70477FDF704785DF704734
:10E1A00086DF704762DF704710B5C8220446002141
:10E1B0000C300FF0A2FD172303222380E3804FF0E1
:10E1C000010362F3061384F8D430072384F8D530B2
:10E1D000102384F8D63084F8D72084F8D82020463D
:10E1E00010BD1729B8BF1721C3709DF800300180FA
:10E1F000037170471729B8BF172143729DF800308B
:10E20000C1808372704701290CBF0088C0887047A5
:10E21000282303FB01018B7B012B0CBF0088C088E6
:10E220007047282303FB01018B7B012B0CBFC078B7
:10E23000407A7047282303FB01018B7B012B0CBF25
:10E240000079807A704707B56846FFF7A1FF02ABF7
:10E250009DF8000053F8072D0A609B888B8003B05F
:10E260005DF804FB07B5012A8DF800200DD80B6876
:10E27000CDF8013000208B88ADF805306946FFF7F6
:10E2800085FFB0FA80F0400900E0002003B05DF89F
:10E2900004FB282303FB0101087B7047282303FBB1
:10E2A0000101487B70472DE9F0410546282048438D
:10E2B0002B1894B093F80D800C46B8F1000F4AD19A
:10E2C0009B7B022B0FD128446946123003F0FCFDE2
:10E2D00048B107AA0DF12E012046BDF82E70FFF7B8
:10E2E0005DFF40B137E005F1D4012046FFF752FF52
:10E2F00088BB4FF6FF770322002101200CF086F93E
:10E30000282606FB04560023194630634FF0FF32DF
:10E310000CF0ACFA737BA3B94FF6FF739F4210D099
:10E320003946022003F0DEFC05F1D4012046FFF758
:10E3300031FF034678B901464FF0FF32306B0CF0E5
:10E3400095FA306B0CF0BCFB00233363282303FBEE
:10E35000045494F80D80404614B0BDE8F0812823A1
:10E3600003FB0101887B704710B52823594301F155
:10E3700008030344014453F80B4F14609B889380B7
:10E38000887C10BD10B5282303FB021252F8123FFF
:10E390000360938883809379837110BD042908B545
:10E3A0000DD8282303FB0101086A48B10023662227
:10E3B00019460CF05BFA003018BF012008BD0020A0
:10E3C00008BDFFF7EBBF282303FB0101088A704754
:10E3D000F0B587B004AC16461F460D4620464FF4F4
:10E3E000285100F05AFD8DE8C0004FF6FF730393EB
:10E3F0000123029394E80C002946024800F0F6F845
:10E4000007B0F0BD603B0020F0B58E884FF6FF737B
:10E410009E4218BF28240B881ABF04FB06040C3444
:10E420000024132B95B007460D4643D007D8102B78
:10E430000ED0112B32D0012B40F0C080AEE0192B52
:10E4400066D01A2B00F09880142B40F0B78078E04B
:10E45000012323708B7DA37055F8082FC4F8062084
:10E46000AA886281AA7922731723A380694630465D
:10E47000FFF798FE9DF8001008460CF0E5F8F6B29C
:10E48000282303FB06766061B37B012B0CBF387930
:10E49000B87A01460CF0D8F8A0618FE000256069D9
:10E4A000657025700CF00CFB6561A0690CF008FB31
:10E4B000A56183E00DF00AFA01284FF0500002D167
:10E4C0000FF0D6FB01E00DF065FE05462061002847
:10E4D00074D0502200210FF010FC4FF6FF73202261
:10E4E000E381002168460FF008FC05F11C0304934A
:10E4F000A3780095012B05F138050CBF07F1D40274
:10E5000000226B46002130460595FFF745FE55E099
:10E510000B7A43B92269A07801236370538AE3819F
:10E52000314603F039FB25690DF0D0F90128284662
:10E5300002D10FF0A5FB01E00DF038FE00232361AE
:10E540003CE05022002168460FF0D7FB6A46298A3A
:10E55000A07803F04DFB0346A88843B100230EAA20
:10E560006946FFF71DFEBDF81230E38126E01A462A
:10E570001946FFF715FE21E00B7A112B06D0E28930
:10E58000A078314603F00CFC01236370606AA8B1E7
:10E5900000231A4619460CF061F80FE063696BB16D
:10E5A00000262A7AF3B29A4206F1010606D9002320
:10E5B0001A46194660690CF051F8F2E715B0F0BD43
:10E5C00095DF704738B50446F82500F5F87003F07C
:10E5D000FCF92A46002120460FF08FFB2A46002135
:10E5E00060190FF08AFB204638BD0000F0B585B0F9
:10E5F0008DE80C00BDF83030ADF80C30BDF834308B
:10E60000ADF80E300F466E4600F5F875284603F05B
:10E6100026FA044628B1124800F012FF0BF026FB40
:10E62000F4E70121284603F0D4F9BDF82C200A991B
:10E63000284603F0E3F903AA31463846FFF7C0FF46
:10E6400028B94FF4FA71284603F0DDF9044628464C
:10E6500003F0C8F924EAE47080B205B0F0BD00BF51
:10E66000843A0020F8B503220D460D4F28260021DC
:10E6700001200BF0CBFF05FB06643C440023194648
:10E680004FF0FF3260600CF0F1F860680CF018FA9F
:10E6900006FB05750023636095F82800F8BD00BFF0
:10E6A000843A00202DE9F04F0D888F88A5F11003E2
:10E6B000012B87B004460E4612D84FF0000822788E
:10E6C0005FFA88F39A420BD99B002344112D5868B6
:10E6D00003680CBF1B685B68984708F10108EEE708
:10E6E000704800F0A6FE874217D14FF028094FF07E
:10E6F000000A09FB07F90AE0502D13D0512D04D16F
:10E70000B6F80880B8F1000F0FD10AF1010A94F8A9
:10E7100054205FFA8AF39A42EED804F5A67A4FF0B5
:10E7200000091FE0B6F80680ECE71633684654F897
:10E7300023B05946FEF7D8FDBDF80020424500F051
:10E740008E80594602A8FEF7CFFDBDF80C20424549
:10E75000DBD184E05AF8040FFFF78DF8874206D02A
:10E7600009F1010994F84C319945F3DB16E0382D95
:10E7700003D0392D01D0362DF2D1B6F80C80B8F186
:10E78000000FEDD0DAF800B05846FFF777F8804573
:10E79000E6D131465846FFF74DFAE1E7112D26D173
:10E7A000002594F8F820EBB29A4201D8002618E030
:10E7B00004EB8303D3F8FC008388BB4202D10368D7
:10E7C0001B6898470135ECE704EB8505D5F8500147
:10E7D000FFF751F8874203D1D5F85001FFF71DF834
:10E7E000013694F84C31F5B2AB42EDD857E0532DD9
:10E7F0000FD0552D1FD0352D51D1B3894BB104F514
:10E80000F874F2897169204603F02BF9204603F071
:10E8100040F9244A282307FB03331344144658685D
:10E8200020B100231A4619460BF018FF282202FBDC
:10E830000747012310E01B4A282307FB0333134437
:10E840001446586820B100231A4619460BF006FFFB
:10E85000282202FB0747002387F828301FE0DBF857
:10E8600000205846D268314690470E4800F0E4FD3B
:10E8700000283FF44AAF502D7FF447AF594604A813
:10E88000FEF732FDBDF8143043457FF43EAF054B33
:10E890004B4439465A8B987B03F0C2F935E707B0F1
:10E8A000BDE8F08F843A002090F85430282B1FBF29
:10E8B0005A1C163380F8542040F8231014BF01204E
:10E8C000002070470378132B9FBF5A1C027000EB87
:10E8D0008300416094BF01200020704738B590F854
:10E8E0004C21054600F5A673002494421BDA53F828
:10E8F000040F884215D10CF033FC95F84C31013BE4
:10E90000DBB285F84C3105EB83035434D3F8502146
:10E9100045F824200022C3F85021BDE838400CF00F
:10E92000C7BC0134E1E738BD90F84C31272B9FBFBD
:10E930005A1C543380F84C2140F8231094BF012016
:10E940000020704790F8F830132B9FBF5A1C80F8B6
:10E95000F82000EB8300C0F8FC1094BF01200020D9
:10E9600070478ADF70478BDF704710B504460CF0A4
:10E97000ADFF0128204603D1BDE810400FF078B963
:10E98000BDE810400DF006BC002330B50122037035
:10E99000C37083800373836003614361054B4270DE
:10E9A00080220446827000F118050FCB85E80F0025
:10E9B000204630BD6C1D0300037E61F30003037627
:10E9C00070470184428470470523C900D20091FB3F
:10E9D000F3F192FBF3F201844284704700787047B0
:10E9E000016170474161704741707047183070474E
:10E9F00010B5044681841830FFF7B3FF28B90448E6
:10EA000000F016FF0120207010BD002010BD00BFD7
:10EA1000843A002038B50546FFF7A5FF044628B91B
:10EA2000034800F016FF2C70012038BD002038BDCF
:10EA3000843A002038B59DF81450C2B148780C785B
:10EA4000984204D1013C0231E4B206D111E0E04326
:10EA500002440134D2B22144EFE715B1AC4228BFE1
:10EA60002C46224604980FF022F9204638BD104665
:10EA700038BD084638BD37B50C7A9DF818500931B5
:10EA80008DE828001346E208FFF7D4FF03B030BD3D
:10EA90002DE9F04F8FB002AC80462046894684E8CD
:10EAA0000C0000F02AFAC0B2102807D102238DF81A
:10EAB000143003238DF81530274606E006238DF821
:10EAC0001430039F07238DF815300026C508B24681
:10EAD0001F22002106A80FF010F905AB4946F25C91
:10EAE000CDF800A006AB4046FFF7C5FF0DF1180BAF
:10EAF00004465CB12A46394658460FF0C9F808B9B1
:10EB0000012007E0641BAB44E4B2F2E70136022EB9
:10EB1000DED120460FB0BDE8F08F0C320CCAFFF7F3
:10EB2000B7BF08320CCAFFF7B3BF8170704770B52A
:10EB3000037B04460E4615461BB1806808B10EF0F3
:10EB400059F92573EDB1E8000EF050F92B4600F1AC
:10EB500008020021013B02F8061C22F8081C42F8BA
:10EB6000041C02F10802F5D1A060DAB2954208D97E
:10EB7000A268D9000A44314403C9013382E8030082
:10EB8000F3E770BD07B58DE8060001226946FFF77F
:10EB9000CEFF03B05DF804FB82B030B587B08DE8DE
:10EBA00006000AAC05469DE8030044F8043F02ABAA
:10EBB00083E8050094E8030006AA02E903000222A4
:10EBC00019462846FFF7B3FF07B0BDE8304002B052
:10EBD000704782B030B589B08DE806000CAC0546B0
:10EBE0009DE8030044F8043F02AB83E8050094E885
:10EBF000030004AA82E803000FAA92E8030008AA0F
:10EC000002E90300032219462846FFF790FF09B0E6
:10EC1000BDE8304002B0704782B030B58BB08DE8AF
:10EC200006000EAC05469DE8030044F8043F02AB25
:10EC300083E8050094E8030004AA82E8030011A910
:10EC400003C906AA82E8030013AA92E803000AAAED
:10EC500002E90300042219462846FFF768FF0BB0BB
:10EC6000BDE8304002B0704713B50831044603C90F
:10EC700001228DE8030069462046FFF758FF02B0E5
:10EC800010BD13B50C31044603C901228DE8030001
:10EC900069462046FFF74BFF02B010BD0123C37049
:10ECA0008180704738B580238370037B002504463C
:10ECB000C5702BB1806808B10EF09CF8A560257373
:10ECC00038BD00002DE9FF410B88112B04460D468D
:10ECD00069D002D8102B59D087E01B2B75D01D2B83
:10ECE00040F0838090F9022091F90F309A427CDC49
:10ECF000037B01F1080613B9E378BBB925E04FF0B7
:10ED00000008237B5FFA88F7BB420BD9A36803EBAB
:10ED1000C7030CCB31462046FFF7BAFE08F10108C5
:10ED20000028EED0237BBB42E6D15EE002230093B5
:10ED3000FF2203AB31462046FFF79DFE002854D04A
:10ED4000A288BDF80C309A424FD12820FFF70DFE63
:10ED500030350746034656F8042B43F8042BAE42E1
:10ED6000F9D12369002B40D01020FFF7FEFD226966
:10ED70004260002242720122027204AA076042F835
:10ED8000047D03461068D86018462CE08B7D022B6A
:10ED90002BD100230370164800F05BFD01211448BD
:10EDA00000F063FD21E089881148FFF7D8FA0228B6
:10EDB0001BD12178C9B90E4800F057FD6378A3B183
:10EDC000A18C2046FFF714FE0FE00B7A022B0CD12A
:10EDD000436953B11020FFF7C8FD0022616902604A
:10EDE0004160427202720DF043FA04B0BDE8F08156
:10EDF000843A0020A0DF70477047000037B500F16B
:10EE000008050446284600F086F829460DF106025A
:10EE10000120FFF7EFFF054628B9044B04481C60AA
:10EE20002146FFF74FFD284603B030BD803A002051
:10EE3000603B00200023838070470000034A02608B
:10EE4000002282720281C26082807047841D0300AA
:10EE500013B504468DE806002346064943F8081B0F
:10EE60009DE8030083E8050000232046A38002B04C
:10EE700010BD00BF841D030013B58DE8060000F12E
:10EE800008049DE8030084E8050002B010BD63DFBC
:10EE9000704764DF704765DF70470123837000238C
:10EEA0000180436070470023837003804160704796
:10EEB00003880B800120704707B50A468178012935
:10EEC00017D9436843B103F1100153F8040B42F81A
:10EED000040B8B42F9D10AE002A9102301F8013D8D
:10EEE000FFF7D9FF28B99DF80730102B01D1012079
:10EEF00000E0002003B05DF804FB8378012B06D00E
:10EF0000426832B9012B8CBF80200020704710204E
:10EF100070478020704708B58378024653B940682F
:10EF200040B1911CFFF7B3FF10205168BDE80840C5
:10EF3000FFF7AFBF002008BD00680B6820F07F40DE
:10EF400023F07F43C31A58425841704700680B684A
:10EF500020F07F4023F07F43C01A18BF0120704784
:10EF600082B001918378C1F307418B4206D10388B7
:10EF7000BDF804001B1A5842584100E0002002B0BE
:10EF8000704707B50191FFF7EBFF80F00100C0B2B9
:10EF900003B05DF804FB0122827000220180426010
:10EFA00070470022827002804160704782B0016029
:10EFB00002B0704752DF704710DF704775DF70474F
:10EFC00076DF704777DF704778DF704779DF70470B
:10EFD0007ADF70477CDF70477DDF7047A9DF7047BD
:10EFE00060DF704761DF7047704712200AF0C7BFCB
:10EFF00037B50E4C0E4DD4F8980300234FF0FF3276
:10F0000019460BF033FC0028F5D001A8FFF7D2FF1A
:10F0100010B10528F9D1EEE70198831E012BF4D831
:10F02000002DF2D00AF032FFEFE700BF843A002053
:10F030008D9E020010B504460CF048FC01282046C5
:10F0400003D1BDE810400EF013BEBDE810400DF036
:10F05000A1B810B50446FFF7A7F804F1DC00FFF7EC
:10F06000B1FA04F53770FDF7DEFD04F54570FDF7E4
:10F070004FFC04F54D70FFF787FC04F55770FDF762
:10F08000E4FE04F55A70FEF74DFF04F5697001F0D7
:10F0900067FB4FF40062C4F88023012284F8A023A8
:10F0A0004FF6FF720023A4F8F4231022C4F884332F
:10F0B000A4F88A2384F88533182284F8843384F8EA
:10F0C000883384F8893384F89033C4F89433C4F8CF
:10F0D0009833C4F89C33A4F88C23A4F88E33C4F876
:10F0E000F833C4F8FC33204610BD80F88413704711
:10F0F00080F885137047D82938BFD82121F0030143
:10F10000C0F88013704710B49DF8044001945DF876
:10F11000044BFFF766B810B49DF8044001945DF805
:10F12000044BFFF767B870477047000070B580F870
:10F13000881390B0054680F8892354490020FFF7D2
:10F140003BFF002840F0A080514B0693014614225B
:10F150000BA80EF0D2FD9DF8383043F001038DF876
:10F16000383095F88533ADF82C3095F88833003376
:10F1700018BF01238DF8343095F88933002B14BF64
:10F18000042300238DF8353014BF012300238DF8AC
:10F19000363006A9D5F880330F930BA8FFF720FF70
:10F1A000002871D1C8230A90ADF82A30B5F88A3307
:10F1B000ADF8243009A8B5F88C33ADF82630FFF748
:10F1C00007FF002860D1334B33491B7810A80B226E
:10F1D00000F82C3DFFF7FEFE0446002853D1FFF750
:10F1E000F3FE044600284ED1FFF7ECFE00284BD179
:10F1F00005F5697001F0D6FA95F889331BB105F56C
:10F200005770FDF72BFE0322002101200BF0FEF9C1
:10F21000C5F8940308B9042036E0002407AB0326A0
:10F2200001934FF4C06223461C4903940294009654
:10F230001B480BF019FD3246214601200BF0E6F980
:10F24000C5F898030028E6D008AB0193C8222346EE
:10F25000144903940294009613480BF005FD134BD8
:10F26000C02283F816234FF480021A60104B0093DB
:10F27000012223464FF4807120460CF009FEC5F8A8
:10F280009C0302F073FC204610B070BDE9EF010052
:10F2900080380020901D0300AC1D0300B81D030042
:10F2A000F1F70100BF1D0300F1EF010000E100E0F4
:10F2B000EBEF010037B5084B02AC1B7804F8043DB6
:10F2C00008460D460FF033FD294682B22046FFF76F
:10F2D00081FE03B030BD00BF901D030007B5084696
:10F2E00002A921F8022DFFF777FE10B99DF806005C
:10F2F00000E0002003B05DF804FB000030B50F4CC7
:10F3000085B005460A462068616801AB03C3217ACF
:10F310001970002301A9C856904204D00133092B6B
:10F32000F9D1002007E01046FFF74CFE0028F8D185
:10F3300085F89023012005B030BD00BF911D03006A
:10F3400090F99003704780F8A013704773B5044696
:10F35000D0F89C030E460CF0D5FE00230546B602FD
:10F360004FF47A720093B6FBF2F20421D4F89C03B6
:10F370000CF0ACFD3DB900952B462A460321D4F88C
:10F380009C030CF0A3FD02B070BD08B50846FFF762
:10F390001BFEB0FA80F0400908BD07B502A80023A3
:10F3A00020F8023DFFF712FEBDF8060003B05DF83D
:10F3B00004FBB0F8F4034FF6FF73C01A18BF012026
:10F3C0007047B0F8F40308B54FF6FF73984206D0C3
:10F3D0001321FFF7F5FDB0FA80F0400908BD0120C8
:10F3E00008BD07B500230193A0F88A13A0F88C2369
:10F3F000C8236846ADF80630ADF80010ADF802201D
:10F40000FFF7E6FDB0FA80F0400903B05DF804FBB9
:10F4100005239200890092FBF3F291FBF3F192B283
:10F4200089B2FFF7DEBFC0F8F8137047C0F8FC13CD
:10F430007047B0F8F4037047B0F8F413FEF72EBF2E
:10F44000B0F88E03704710B5B1F8F4230446FEF708
:10F4500099FF204610BD0A46B0F8F413FEF784BFAA
:10F4600070B5714C2DED028B94F862308AB0054670
:10F47000002B00F0D580D0F89433002B00F0D08022
:10F480006A4920460CF0D2FF694A6A4920460CF0CE
:10F49000EDFF0A2295F8851320460DF02EF8664AF6
:10F4A000644920460CF0E2FF0A22D5F8801320467A
:10F4B0000DF039F8614A5F4920460CF0D7FF0A2267
:10F4C00095F8841320460DF018F85D4920460CF09D
:10F4D000ADFF02AE5B4A574920460CF0C7FF202221
:10F4E000002130460EF009FC202231462846FFF765
:10F4F000F5FE314620460CF0B9FF20460CF084FFA3
:10F50000514A4C4920460CF0B1FF95F888234F49E9
:10F51000003218BF012220460CF0A8FF95F889336D
:10F520004B49002B14BF0422002220460CF09EFF02
:10F5300020460CF069FF474A3E4920460CF096FFF2
:10F54000454B0FCB86E80F0069462846FEF77BFE49
:10F550003A2306460622694620460DF077F80AABA4
:10F5600003EB86063D4956F8202C20460CF07EFF22
:10F5700020460CF049FF3A4A2E4920460CF076FF0F
:10F5800095F99023374920460CF070FF20460CF087
:10F590003BFF354A274920460CF068FFB5F88A330F
:10F5A00007EE903AF8EEE77AB7EE048A67EE887ACB
:10F5B00017EE900A0EF09AF802460B4620462B49A9
:10F5C0000CF054FFB5F88C3307EE903AF8EEE77A7A
:10F5D00067EE887A17EE900A0EF088F80B4602461E
:10F5E000234920460CF042FF20460CF00DFF214A33
:10F5F000104920460CF03AFF20460CF005FF012090
:10F6000002F014FC1C4A0B4920460CF02FFF204648
:10F610000CF0FAFE022002F009FC20460CF0F4FE89
:10F620000AB0BDEC028B70BD78400020C61D0300FF
:10F63000EC1D0300F81D0300001E0300101E030054
:10F64000201E0300421E0300471E0300571E030036
:10F65000691E0300771E03009C1D03007F1E03002C
:10F66000851E03008E1E0300951E0300A41E0300CA
:10F67000B41E0300C21E0300DC1E03000148FFF796
:10F68000EFBE00BF843A002010B5064C0021D4F82C
:10F6900098030BF0C6F8D4F894030021BDE810409D
:10F6A0000BF0BFB8843A002073B504460D468E882F
:10F6B000FEF7AAFE294604F53770FDF74DFB04F569
:10F6C0004D702946FFF7FEFAB4F8F4032B88864202
:10F6D00005D0102B01D01B2B60D1112B01E0112B79
:10F6E0003DD002D8102B0AD058E0122B33D0522B29
:10F6F00054D100231A461946FFF770FC4EE0AB7D4B
:10F70000012B4BD12B8BB4F88A23A888A4F8F403DF
:10F710009A42A4F88E3363D8B4F88C2393425FD80E
:10F72000D4F8F833002B39D01020FFF783FC0022E7
:10F73000D4F8F813026042720122027202AA4160F8
:10F74000B4F8F41342F8081D03461068D860184650
:10F750000CF08EFD22E02B89A4F88E331EE0D4F845
:10F76000FC33BBB11420FFF765FC0022D4F8FC1376
:10F7700002604272022202724160B4F8F4230092E5
:10F780002A7A01926A46034603CAD860196118466C
:10F790000CF06EFD4FF6FF73A4F8F43394F8893340
:10F7A00063B1B4F8F433B34203D14FF6FF739E4212
:10F7B00004D1294604F55770FDF7B2FB04F55A76DB
:10F7C0003046FEF7C7FB18B129463046FEF7ADFCC0
:10F7D000294604F1DC0002B0BDE87040FEF762BFCC
:10F7E0000021FFF7EBFB00289AD002B070BD0000AB
:10F7F00030B50E4D95B000234FF0FF321946D5F8C5
:10F8000094030BF033F80028F5D047240DF10601DE
:10F8100002A8ADF80640FFF7E5FB20B902A90348AE
:10F82000FFF742FFF2E70528E5D0EFE7843A002032
:10F8300090F8A03313B553B1D0F89C430BF098FC6B
:10F84000002302460093012120460CF03FFB02B04A
:10F8500010BD07B5002300931A460321D0F89C037E
:10F860000CF034FB03B05DF804FB90F8A03313B147
:10F8700012200AF043BB7047B0F8F413FEF713BD33
:10F8800002F0F4B910B5054C2046FFF7E2FB204624
:10F89000034A0449BDE810400EF058B9843A0020EC
:10F8A00080380020A9F8010010B5054BC0F8A4333A
:10F8B000044600F56D70FDF785FB204610BD00BFC6
:10F8C0004820030010B504460CF000F8012820463B
:10F8D00003D1BDE810400EF0D3B9BDE810400CF0E4
:10F8E00065BC2DE9F3418DF80520013A022ABDF8E7
:10F8F0002070ADF806708CBF062608261D4600F164
:10F90000C008002300930446CDF801103A4629466A
:10F910004046B6B202F072F83246694604F114006D
:10F92000FEF72EF8864201D0002028E04FF4FA714D
:10F93000404602F068F80028F6DBEE880836B4F896
:10F94000CE309BB29E4202D9B4F8CC307BB9B4F829
:10F95000CE40083CA4B2224605F1080128460EF02C
:10F96000B1F9A74201D900232B55204607E04FF4F7
:10F97000FA71404602F047F80028E0DAD4E702B016
:10F98000BDE8F0812DE9F347804608468946924656
:10F990001E460FF0CCF90330C5B2BDF828700BF04D
:10F9A00095FF0128284602D10EF062F901E00CF023
:10F9B000F1FB01230446494600F8013B0FF093F99F
:10F9C00063193A4603F801AC08F1C00A31465046C3
:10F9D0001FFA85F902F012F84A46214608F1140090
:10F9E000FDF7CEFF8145204602D0FFF76BFF11E007
:10F9F000FFF768FF6C1CB8F8CE309BB29C420BDB63
:10FA0000B8F8CC3043B14FF4FA71504601F0FBFF27
:10FA10000028F0DA002429E0735BADF80630BDF869
:10FA20000630B8F8CE202B4492B2013393420ADB61
:10FA3000B8F8CC303BB14FF4FA71504601F0E3FF17
:10FA40000028ECDAE6E7B8F8CE40A4B2023CC9EBF5
:10FA50000404A4B2A91C224631443046ADF8064045
:10FA60000EF030F9A74201D900233355204602B0E9
:10FA7000BDE8F08773B5054619496846FFF713FAE4
:10FA80002E469DE806002846FEF70CFA154B46F870
:10FA9000143B68461449FFF706FA9DE80600304615
:10FAA000FDF780FE68461149FFF7FDF99DE8060065
:10FAB00005F14C00FDF776FE68460D49FFF7F3F9B6
:10FAC0009DE8060005F18400FDF76CFE05F1C0001D
:10FAD00001F07BFF00232846C5F8BC3002B070BDA2
:10FAE0005B1F0300741F03002B1F03004B1F030049
:10FAF0003B1F0300C0F8BC10704710B504468430AB
:10FB0000FEF76CF828B104F14C00BDE81040FEF798
:10FB100065B810BD10B504464C30FEF76AF804F124
:10FB20008400FEF766F8012010BD10B4072ABDF866
:10FB3000044004D801945DF8044BFFF7D2BE0020C6
:10FB40005DF8044B704710B4BDF8044022B901942D
:10FB50005DF8044BFFF716BF00205DF8044B7047BB
:10FB600007B50223CDF801108DF80520694606225D
:10FB700014308DF80030FDF703FF831F58425841C1
:10FB800003B05DF804FB082A04D1D0F8BC300BB1F7
:10FB900008461847704738B50C461546FDF772FE03
:10FBA0002A462146BDE83840FFF7EDBF10B500F109
:10FBB000C004204601F055FF2046BDE8104001F08A
:10FBC00068BF38B50C461546FDF75CFE2A4621464F
:10FBD000BDE83840FFF7EABF07B50093134600229F
:10FBE000FFF77FFE03B05DF804FB07B500931346F3
:10FBF0000122FFF776FE03B05DF804FB07B5009322
:10FC000013460222FFF76DFE03B05DF804FB07B553
:10FC1000009313460322FFF764FE03B05DF804FB74
:10FC200070B5142488B005460E462246002103A86C
:10FC30000EF063F8009403AB042231462846FFF728
:10FC400050FE28B10A22002103A80FF039F980B232
:10FC500008B070BD07B5009313460522FFF741FEBB
:10FC600003B05DF804FB07B5009313460622FFF7C7
:10FC700038FE03B05DF804FB07B500931346072276
:10FC8000FFF72FFE03B05DF804FBF0B593B0044618
:10FC90000F4615460021402202A81E460EF02DF800
:10FCA000402302AA39462046FFF796FF30B100965E
:10FCB0002B46002202A92046FFF764FE13B0F0BDD8
:10FCC0000022FFF74DBF0122FFF74ABF38B50446B7
:10FCD000FEF7A8F804F1C000002101F07AFE04F15B
:10FCE0004C0504F114000021FDF774FD843428460E
:10FCF0000021FDF76FFD20460021FDF76BFD284632
:10FD000001220549FDF72DFF204600220349FDF79A
:10FD100028FF012038BD00BF97FB0100C3FB010095
:10FD20007FB504460E46FEF78FF80546A8B14FF69C
:10FD3000FF73A38004F11403019304F14C030293B5
:10FD400004F18403039301AA032331460448FEF718
:10FD500048F903280CBFA6800025284604B070BDD2
:10FD6000EC3D0020FEF75AB873B5054641F6050193
:10FD70006846FFF792F82E469DE806002846FEF7F3
:10FD800091F8114B46F8203B684642F62B21FFF7CD
:10FD900084F89DE806003046FDF704FD684642F60B
:10FDA0000F21FFF77AF89DE8060005F15800FDF7EE
:10FDB000F9FC002328466B61AB61AB83EB83C5F88C
:10FDC000903002B070BD00BF881F030000F1140125
:10FDD00008B50A222030FDF779FD003018BF012058
:10FDE00008BD00F11E0108B502225830FDF76EFD76
:10FDF000003018BF012008BD2030FDF7EFBEC0F86D
:10FE00009010704710B5044614300DF050FFD4F830
:10FE100090301BB1607FBDE81040184710BD38B569
:10FE20000C461546FDF72EFD2A462146BDE8384012
:10FE3000FFF7E8BF38B5044604F12005FDF7F2FFEF
:10FE400021462846FDF7C6FC012228460449FDF755
:10FE500088FE04F158002146FDF7BCFC012038BDA6
:10FE60001FFE0100F7B504460E46FDF7EDFF0546FF
:10FE700008B9002514E04FF6FF73A38004F158037E
:10FE800004F1200701936A46022331460648009791
:10FE9000FEF7A7F83846FDF7F1FC0028E9D0A68068
:10FEA000284603B0F0BD00BFEC3D002037B5044646
:10FEB00041F60A016846FEF7F0FF9DE8060020467D
:10FEC000FDF7F0FF024B2360204603B030BD00BFBA
:10FED0009C1F030008B5FDF7A5FF012008BDFDF735
:10FEE000B3BF00002DE9F041064692B0194898468C
:10FEF0000D461746FEF734F802AC0190D6F806100E
:10FF00001448FEF729F82946204604ADFEF7C5FF40
:10FF100094E806002846FDF745FC31462846FDF7E3
:10FF200059FCB1880B48029501232246FEF759F887
:10FF300020B1424639462846FDF7C8FC04460199DF
:10FF40000448FEF709F82846FDF7E6FB204612B004
:10FF5000BDE8F081EC3D002013460A4642F624211C
:10FF6000FFF7C0BF13460A4642F62521FFF7BABF86
:10FF700013460A4642F62621FFF7B4BF13460A4647
:10FF800042F62721FFF7AEBF13460A4642F6282164
:10FF9000FFF7A8BF13460A4642F62921FFF7A2BF82
:10FFA00073B5054641F612016846FEF776FF2E4608
:10FFB0009DE806002846FDF775FF274B46F82C3BC9
:10FFC000684642F64E21FEF768FF9DE8060030467F
:10FFD000FDF7E8FB684642F64A21FEF75EFF9DE822
:10FFE000060005F16400FDF7DDFB684642F64C2192
:10FFF000FEF753FF9DE8060005F19C00FDF7D2FBDC
:020000022000DC
:10000000684642F62221FEF748FF9DE8060005F10A
:10001000D400FDF7C7FB684642F63221FEF73DFFEC
:100020009DE8060005F58670FDF7BCFB684642F6C4
:100030003321FEF732FF9DE8060005F5A270FDF7BB
:10004000B1FB002328466B61AB61EB612B626B62F5
:1000500085F8283002B070BDB01F030041617047C1
:100060008161704708B504226430FDF72FFC031F3F
:100070005842584108BD07B502A9002341F8043D84
:10008000FFF7F0FF9DF8060003B05DF804FB08B52C
:100090002C30FDF743FD003018BF012008BD10B51E
:1000A0000446D430FDF7E2FB28B104F58670BDE8C4
:1000B0001040FDF7DBBB10BDD430FDF78FBDD43051
:1000C000FDF797BD10B5044600F11C030020E06168
:1000D000206218460DF0EBFD626912B1BDE81040D8
:1000E000104710BD38B50C461546FDF7CBFB2A4628
:1000F0002146BDE83840FFF7E5BF50F81C3F0B60D4
:1001000043684B60704700F5A270FDF7AFBB00F588
:10011000A270FDF763BD00F5A270FDF76ABD10B5D2
:10012000044600F124030020606284F82800184689
:100130000DF0BDFDA26912B1BDE81040104710BD21
:1001400038B50C461546FDF79DFB2A462146BDE80D
:100150003840FFF7E4BF50F8243F0B6003790B7180
:100160007047000070B50446FDF75CFE214604F1BF
:100170002C00FDF72FFB214604F16400FDF72AFB5C
:1001800004F1D406214604F19C00FDF723FB21462F
:100190003046FDF71FFB04F5A275214604F5867075
:1001A000FDF718FB21462846FDF714FB30460122D7
:1001B0000449FDF7D6FC284601220349FDF7D1FC8E
:1001C00070BD00BFE5000200410102002DE9F043CF
:1001D00087B004460F46FDF737FE88B34FF6FF732E
:1001E000A38004F1D403019304F5867304F12C0574
:1001F000029304F5A27604F1640904F19C08062335
:100200006A463946124800950396CDF81090CDF80D
:100210001480FDF7E6FE2846FDF728FB80B148462E
:10022000FDF724FB60B14046FDF720FB054638B1E1
:100230002046FFF734FF28B93046FDF717FB08B911
:10024000002500E0A780284607B0BDE8F08300BF86
:10025000EC3D002007B5036801221B690DF1070181
:10026000984710B19DF8070001E04FF0FF3003B050
:100270005DF804FBA0F11400FFF7ECBF13B502AB6F
:10028000026803F8011D946919460122A04702B0D3
:1002900010BDA0F11400FFF7F1BFB0F8A00080B2CC
:1002A0007047A0F11400FFF7F8BF70B50D46164671
:1002B000FDF7E8FA04463246294694300CF09BFEDE
:1002C000D4F8AC301BB12046BDE87040184770BD73
:1002D00008B592B294300CF0CFFE08BD08B592B2CA
:1002E0005C30FDF7D7FB08BDA0F11400FFF7F6BFA7
:1002F00007B594300DF107010CF0D8FE10B19DF850
:10030000070001E04FF0FF3003B05DF804FBA0F1FF
:100310001400FFF7EDBF94300CF02BBEA0F11400D9
:10032000FFF7F9BFF7B504460F4668461849FEF7D0
:10033000BAFD9DE806002046FDF7B4FD4FF47A7340
:10034000E361144B144903F108020026383363615A
:1003500022606846A661FEF7A6FD9DE8060004F14E
:100360002400FDF71FFA68460C49FEF79CFD9DE846
:10037000060004F15C00FDF715FA3A46012104F18C
:1003800094000CF0BDFD2046C4F8AC6003B0F0BD95
:1003900004240300BC1F0300F42303006C240300A7
:1003A0002430FDF71BBC2430FDF723BCC0F8AC1093
:1003B0007047000038B5044694300CF0B1FD20467B
:1003C000FDF730FD04F12405214604F15C00FDF742
:1003D00001FA21462846FDF7FDF928460122024987
:1003E000FDF7BFFB012038BDAB02020073B5044628
:1003F0000E46FDF729FD054608B9002511E04FF628
:10040000FF73A38004F15C03009304F124030193C0
:100410006A46022331460448FDF7E3FD0228ECD189
:10042000A680284602B070BDEC3D002010B5044601
:10043000FDF7F4FC236820465B6ABDE810401847CE
:1004400073B5054641F60F016846FEF726FD2E46B8
:100450009DE806002846FEF7FBFC084B46F8103BDB
:10046000684642F61921FEF718FD9DE80600304661
:10047000FCF7D8FE284602B070BD00BF1420030070
:1004800008B51030FCF78BFF003018BF012008BD05
:100490001030FDF780B838B50446FEF7AFFC0546CE
:1004A00090B9103420461221FCF7DFFE2A46204680
:1004B0001121FCF7EBFE20460121FCF7DBFE204674
:1004C000BDE83840FCF786BD38BD4C2303800023CF
:1004D000436043810381CA230373704708B5FFF764
:1004E000F4FF08BD08B5FFF7F0FF416008BD38B55F
:1004F0001D46FFF7EAFF416052BA02816DBA9DF9CD
:1005000010304581037338BD0180704741607047EA
:1005100049BA018152BA428170470173704770B580
:10052000044688B008460D46FCF779FB19220021E5
:1005300001A80DF0E2FB02238DF8063015238DF89B
:1005400007302388ADF804302389ADF8183063896B
:10055000ADF81A30237B8DF81C30636802AC03F1D0
:10056000100618685968224603C20833B34214467D
:10057000F7D106212846FCF725FB192301AAFF2104
:100580002846FCF7C9F908B070BD00000149FFF723
:10059000C6BF00BF603D002044DF704745DF7047A5
:1005A00011DF704713DF7047A8DF7047AADF70477D
:1005B000F0B59DB00C8807460D46014608A8FCF72B
:1005C00093FEBDF82030A34240F0B680AB79043BE7
:1005D000022B40F2B180594E3046FEF72AFF10221E
:1005E000044600210DEB02000DF087FB0223384684
:1005F0008DF81030FCF756FF40B940F2FD1304A906
:100600002046ADF81430FFF7CFFF95E0002304A992
:100610002046ADF81430FFF7C7FF2F7B012F40F0C5
:100620008B80474D19463E2228460DF066FB1CAADA
:10063000082322F8623D43493B462046FFF7B6FFB8
:10064000224631466846FDF79DFE00982860BDF8B9
:1006500004209DF80630AB71AA8021463046FDF794
:100660001DFE10B3282303FB046408AA618B3846DF
:1006700001F0BEFAC8B11AAC94E80300324AA9806E
:10068000090C2860A97116AD2B4603CBA34210605C
:1006900051601D4602F10802F6D108AC0FCC2B4D7B
:1006A0000FC594E8070085E807002548284C4FF659
:1006B000FF7110F8012B82EA112383EA13139AB217
:1006C00043EA012383EA023383EA4213A04299B248
:1006D000EFD11B4B19489987FEF773FE1D48FCF7B5
:1006E0002BFBFF20FFF75AFFB120FFF755FF18BB88
:1006F000FFF756FF00BB184A136823F0010313608D
:10070000164B4FF48002C3F880210124420900F007
:100710001F012032013004FA01F1272843F822108A
:10072000F4D14FF010235869FFF73CFF20B980F354
:100730001488586901F03EF91DB0F0BD843A0020DC
:10074000807F0020B47F0020877F0020987F0020DA
:10075000BC7F0020603D002010E000E000E100E0F0
:1007600073B505460C496846FEF79DFB2E469DE88D
:1007700006002846FEF76CFB084B46F8103B68461F
:100780000749FEF790FB9DE806003046FCF74AFD5E
:10079000284602B070BD00BF20200300482003009F
:1007A0003020030030B5A3B00446FEF727FB002835
:1007B0004FD112AD29492846FEF775FB95E8060092
:1007C00002A8FCF72FFD02A8FCF74CFD042102A8AB
:1007D000FCF74BFD02A81421FCF74AFD02A8FCF728
:1007E000F9FB88BB103418212046FCF73EFD172189
:1007F0002046FCF73DFD20461949FCF75BFD2046ED
:10080000FCF7E8FB00BB17496846FEF74CFB9DE888
:1008100006002846FCF706FD2846FCF723FD0221CA
:100820002846FCF722FD02212846FCF723FD284636
:10083000FCF7D0FB044618B901212846FCF7BAFDA5
:100840002846FCF7BFFB00E0044602A8FCF7BAFB11
:1008500000E00446204623B030BD00BF5420030012
:10086000B10502006420030037B5044641F60A01D1
:100870006846FEF712FB9DE806002046FEF7E8FA00
:10088000074B2360074B236100236361A361E3618E
:10089000054B2362054B6362204603B030BD00BFA9
:1008A000A820030074200300AE4103008920030048
:1008B00001617047C16170470162704741627047D2
:1008C000F0B593B00546FEF799FA00283BD10BF03E
:1008D00049FD68610BF014FD0C35E86042F62426F2
:1008E0006F4655F8043F3BB331463846FEF7D5FA1C
:1008F00097E8060002A8FCF795FC02A8FCF7B2FCFA
:10090000022102A8FCF7B1FC28680EF010FA81B2AF
:1009100002A8FCF7AFFC02A8FCF75CFB044620B180
:1009200002A8FCF74FFB20460DE0296802A8FCF75F
:1009300029FD02A8FCF746FB0136B6B242F62A238F
:100940009E42CED1002013B0F0BD000010B50023B0
:1009500004460122032100F031F9034B23600023F8
:1009600084F89030204610BD6C210300437D0A4678
:1009700013B9082200F0E1B90823012100F0CDB934
:1009800007B50023009313688DF80010CDF80230EE
:1009900069469388ADF80630FFF7E8FF03B05DF8CD
:1009A00004FB13B5002400948DF803309DF810303B
:1009B0008DF804309DF814308DF805309DF818300E
:1009C0008DF800108DF8063069469DF81C308DF8C2
:1009D00002208DF80730FFF7C9FF02B010BD0000FC
:1009E00007B5002300930193094B13F8112003EB83
:1009F0004103002A18BF02225B788DF80020694667
:100A00008DF80230FFF7B2FF03B05DF804FB00BFC2
:100A10007821030007B50023694600930193FFF78F
:100A2000A5FF03B05DF804FB2DE9F04107460C4635
:100A3000164614F8015BA5B194F8008029463846A3
:100A4000FFF7CEFF304609F011F9454502D0B8F165
:100A5000000FEED13846FFF7DDFF304609F006F90A
:100A6000E7E70120BDE8F08107B502AA022322F8DA
:100A7000021D194600F051F903B05DF804FBFFF7C1
:100A8000F3BF0021FFF7F0BF437D0A4613B90522EB
:100A900000F057B90523032100F03FB907B58DF8E1
:100AA00002309DF910308DF800108DF8033080F879
:100AB00090109DF914308DF8012069468DF80430AE
:100AC000FFF7E2FF03B05DF804FB07B5002380F8F1
:100AD00090101A4601930093FFF7E0FF03B05DF812
:100AE00004FB07B50023019300931A461946FFF74C
:100AF000D5FF03B05DF804FB13B590F890400023D8
:100B00000193009313460A462146FFF7C7FF02B040
:100B100010BD13B590F8904000238DE80A001A46E6
:100B20002146FFF7BBFF02B010BD13B590F890400F
:100B30000191002300931A462146FFF7AFFF02B050
:100B400010BD000030B5154B85B004AA0446012540
:100B500018689B8822F80C5D0290ADF80C30204696
:100B6000002302A900F0D1F82046294600F0BCF885
:100B70002046294600F0BAF82046A922084900F08C
:100B8000C1F8204600F0E2F8044620B90C22092101
:100B90000448FEF726FC204605B030BDB420030013
:100BA000BA200300843A002010B50C46FCF758FB2D
:100BB0002378003318BF0123437510BD2DE9F74397
:100BC00004460D46684641F612019846914627466E
:100BD000FEF763F99DE806002046FEF739F9414B20
:100BE00047F8503B42F64C216846FEF756F99DE81F
:100BF00006003846FCF716FB00220121022322756D
:100C0000E2746175E2612262E262A262626225744C
:100C100084F8119084F81280A175E17522766376CC
:100C200062632264E263A263E264A2646264226398
:100C3000A5B14026082006FB05000CF0D7F8066099
:100C400000F1080645603746013D3846013DFCF796
:100C5000DDFA691C07F14007F7D1A663657C2DB367
:100C60004026082006FB05000CF0C0F8066000F1E5
:100C7000080645603746013D3846013DFCF7C6FA97
:100C80006A1C07F14007F7D1607CE66380000CF036
:100C9000ADF8002320631846617C5A1CDBB29942F0
:100CA00004D9216B41F823001346F5E7A57CA5B1D3
:100CB0004026082006FB05000CF098F8066000F1BD
:100CC000080645603746013D3846013DFCF79EFA6F
:100CD0006B1C07F14007F7D12664204603B0BDE83E
:100CE000F08300BF80220300C17470470175704714
:100CF00013B502AC027624F8021D2188C182437626
:100D000002B010BDC1610262704741628262C3627B
:100D10007047036B43F82120704730B4002908BFA7
:100D2000012101F18064806B1546013C294600EBEE
:100D300084109AB230BCFCF7C5BB92B2406CFCF791
:100D4000C1BB92B2C06CFCF7BDBB00002DE9F04303
:100D5000C369A3B00446002B00F08781036A002B0F
:100D600000F08381FEF74AF8002840F08081E37CA0
:100D700012AE0BB9237D23B342F64E213046FEF767
:100D80008CF840200CF030F896E806000546FCF799
:100D900049FA062128466563FCF767FA0121606B72
:100DA000FCF768FA606BB449FCF775FA606B03688E
:100DB0009B689847002840F05A81617D606BFCF782
:100DC000EEFA0025237CAB4201D800256CE0A06B35
:100DD0000FFA85F94FEA891700EB070842F64D2113
:100DE0003046FEF75AF896E806004046FCF72EFA21
:100DF000A06B12213844FCF738FAA06B00222121A5
:100E00003844FCF743FA0135A06BEDB201222946C4
:100E10003844FCF75CFA636A2BB1A06B33F8191005
:100E20003844FCF727FAA06BC35938449B689847AD
:100E30000028C7D01BE1E06B0FFA85F94FEA89174C
:100E400000EB070842F64D213046FEF726F896E8FB
:100E500006004046FCF7FAF9E06B0E213844FCF737
:100E600004FAE06B002221213844FCF70FFA013527
:100E7000E06BEDB2022229463844FCF728FAA36A57
:100E80002BB1E06B33F819103844FCF7F3F9E06B41
:100E9000C35938449B689847002840F0E880E36BCA
:100EA0000146D819FCF77BFA637CAB42C3D842F603
:100EB0004B213046FDF7F1FF96E8060002A8FCF74B
:100EC000B1F902A8FCF7CEF9022102A8FCF7CDF98E
:100ED0000022212102A8FCF7D9F9218C02A8FCF7F5
:100EE000C9F902A8FCF776F80546002840F0B6805C
:100EF000228CE16902A8FCF72EFAE37C002B47D094
:100F000042F622213046FDF7C8FF40200BF06CFF6F
:100F100096E806000746FCF785F912213846676413
:100F2000FCF7A3F90821606CFCF7A4F92A462121FB
:100F3000606CFCF7ABF9606C03689B6898470546EA
:100F4000002840F08B8042F632213046FDF7A5FFA5
:100F500040200BF049FF96E806000746FCF762F9CF
:100F60000E213846A764FCF780F90121A06CFCF73C
:100F700081F9A06C2A462121FCF788F9A06C03684E
:100F80009B68984700286BD10146A06CFCF707FAD4
:100F9000237D03BB42F64A216846FDF77EFF9DE8AC
:100FA00006003046FCF73EF93046FCF75BF90221BB
:100FB0003046FCF75AF9002221213046FCF766F949
:100FC00004213046FCF756F93046FCF703F8054695
:100FD00000283ED120E042F633213046FDF75DFF88
:100FE00040200BF001FF96E806000546FCF71AF9D1
:100FF00012212846E564FCF738F90521E06CFCF77E
:1010000039F9E06C00222121FCF740F9E06C03681B
:101010009B68984720BBBDE7042204F116013046C7
:101020005034FCF798F904212046FCF71EF92122E0
:1010300029462046FCF72AF901212046FCF71AF937
:101040002046FBF7C7FF054618B901462046FCF7C6
:10105000A6F930462C46FBF7B5FF02E02C4600E02F
:10106000044602A8FBF7AEFF02E0072400E00446B6
:10107000204623B0BDE8F083A90B0200B0F86C0055
:1010800080B27047A0F11000FFF7F8BF07B56030DD
:101090000DF107010BF0C9FF10B19DF8070001E049
:1010A0004FF0FF3003B05DF804FBA0F11000FFF734
:1010B000EDBF07B560300DF107010BF0F7FF10B180
:1010C0009DF8070001E04FF0FF3003B05DF804FB2E
:1010D000A0F11000FFF7EDBF60300BF04ABFA0F1A8
:1010E0001000FFF7F9BF0000F7B504460F46684649
:1010F0001349FDF7D8FE9DE806002046FDF7A8FE3F
:101100004FF47A73A3610F4B0F49002603F10802D5
:1011100030332361226068466661FDF7C4FE9DE8B6
:10112000060004F12000FCF77DF83A46012104F1A5
:1011300060000BF0E5FE2046A667E66703B0F0BD51
:10114000E42303008C230300D423030010B50446DA
:101150000548FEF771F928B104F12000BDE8104000
:10116000FCF7A0B910BD00BF843A0020816770472A
:10117000C167704703689B681847013A2DE9F04141
:101180000131054694B200F1600684B191F9003056
:10119000002B03DA013C11F9013FA4B24F1C0122DC
:1011A0003046013C0BF027FFA4B23946EDE7AB6FA8
:1011B00013B1BDE8F0411847BDE8F081022A38B507
:1011C0000D46144607D9FCF74BF822462946BDE8E0
:1011D0003840FFF7D2BF38BDC8097047F32904D89B
:1011E000A1F1F1035842584170470120704701F1C5
:1011F0004003DBB21F2B04D9A1F1F303584258413D
:1012000070470120704781F080033F2B09D901F11D
:101210002003DBB20F2B04D9A1F1F203584258414D
:1012200070470120704773B5144605460E4608F016
:1012300005FD002300938DF80430C2096FF07F0391
:1012400062F305038DF800306FF07F0360F306034F
:10125000224631460DF102008DF801300CF027FDD9
:10126000A21C694605F12000FCF72CF902B070BD04
:10127000F7B5154606460F4608F0E0FC002301933B
:1012800002ACC0096FF07F0360F3050304F8043D6E
:101290002A4639460DF105000CF009FD6A1C21466D
:1012A00006F12000FCF70EF903B0F0BDF729F8B500
:1012B00006460F46254D264C0BD12A784AB194F9A3
:1012C0000030002B2FDA2146FFF7ADFF00232370FB
:1012D0002B702B78E75427785A1CD2B23946304607
:1012E0002A70FFF77BFF08B1012A20D0394630462B
:1012F000FFF77DFF08B1022A19D039463046FFF7C3
:1013000082FF08B1032A12D02A78032A1CD194F94B
:101310000030002B13DA0E493046FFF784FF00231C
:1013200023702B7010E02146FFF7A2FFCEE708499B
:101330003046FFF778FF002323702B70E4E7044961
:101340003046FFF795FFEAE70120F8BD873E002011
:10135000843E0020A0F11000FFF7A8BF10B504469E
:1013600060300BF0DDFD2046FDF748FDC0B92034AC
:1013700020461E21FBF779FF212211462046FBF76C
:1013800085FF20460749FBF786FF2046FBF722FE34
:10139000044620B90C2209210348FEF722F8204612
:1013A00010BD00BFBD110200843A002007B50368DC
:1013B00001229B690DF10701984710B19DF80700C4
:1013C00001E04FF0FF3003B05DF804FBA0F1100026
:1013D000FFF7ECBF13B502AB026803F8011D146AF6
:1013E00019460122A04702B010BDA0F11000FFF77E
:1013F000F1BFD0F8A030988980B27047A0F11000FA
:10140000FFF7F7BF70B50D461646FBF729FF0446F8
:1014100032462946D0F8A0000BF0EDFDD4F8A830F4
:1014200013B1BDE87040184770BD37B50C46FBF7E7
:1014300017FFD0F8B4507DB114F0010306D009F0C5
:1014400097FE002300930246012102E000931A4612
:10145000032128460AF03AFD03B030BD37B50546F2
:10146000D0F8B40080B10024009423462246052120
:101470000AF02CFDD5F8AC00C5F8B44020B103B09B
:10148000BDE830400BF075BD03B030BDD0F8A00012
:101490000BF06FBDA0F11000FFF7F8BF08B592B2D6
:1014A000D0F8A0000BF0E8FD08BD07B5D0F8A0000B
:1014B0000DF107010BF0FAFD10B19DF8070001E0F6
:1014C0004FF0FF3003B05DF804FBA0F11000FFF710
:1014D000ECBF000037B590F8B03004469BB10B4B21
:1014E0000093012203460A2100200AF0D1FCC4F82F
:1014F000B400054609F03CFE00230246009301219A
:1015000028460AF0E3FC03B030BD00BF71160200AC
:10151000F7B504460F4668461A49FDF7C4FC9DE836
:1015200006002046FDF794FC4FF47A73A361164B36
:101530001649002603F10802403323612260684601
:101540006661FDF7B0FC9DE8060004F12000FBF7A2
:1015500069FE68460E49FDF7A6FC9DE8060004F109
:101560006000FBF75FFE2046C4F8A060C4F8A860E6
:10157000A4F8A470C4F8AC6084F8B060C4F8B46097
:1015800003B0F0BD0424030014240300F42303007B
:101590006C240300C0F8A8107047000070B5044622
:1015A000203084F8B010C9B11249FBF776FED4F8A8
:1015B000AC60EEB918200BF017FC3246054601214D
:1015C0000BF09EFCC4F8AC5001210B48FCF71BFE4D
:1015D00001462846BDE870400BF0AFBCFBF75DFE4E
:1015E000D4F8AC0020B10368BDE870405B681847D0
:1015F00070BD00BF2B140200843A00202030FBF79E
:1016000051BF000070B506461848FDF712FF0146AD
:101610001648FCF7D8FE033885B20AF057F90128BE
:10162000284602D10CF024FB01E00AF0B3FD044689
:10163000D8B12A460146D6F8AC000BF01DFD024693
:1016400030B1214606F12000FBF73CFF054600E0E3
:1016500001250AF03BF90128204602D10CF010FBCD
:1016600001E00AF0A3FD284670BD70BD843A002059
:1016700008B50AF053FDD0F8AC301BB1BDE8084006
:10168000FFF7C0BF08BD00002DE9F04790F8B0306B
:1016900005468946174600F1200813B1D0F8AC3052
:1016A0003BB9BAB249464046FBF70CFFF0B90024FB
:1016B0002EE04046FBF7F6FE0028F8D0BEB23246D8
:1016C0004946D5F8AC000BF096FCD5F8AC30044692
:1016D0001148B3F80CA0FDF7ACFE01460E48FCF72C
:1016E00072FE1FFA8AFA0338824501DA3C460FE09F
:1016F0002846FFF787FF0028D9D0A742F6D9321B2A
:1017000092B209EB04014046FBF7DCFE0028EDD164
:101710002046BDE8F08700BF843A0020A0F1100009
:10172000FFF7B2BF0A4B10B50360383304460361BC
:10173000D0F8AC0010B103685B68984704F1600012
:10174000FBF740FC04F12000FBF73CFC204610BDF9
:101750001C24030010B50446FFF7E4FF20460BF0FD
:1017600047FB204610BD0000F8B5044618200BF0DA
:101770003BFB0022054601210BF0C2FB2846C4F8C2
:10178000A050B4F8A4100BF0D8FB2046FDF736FBB0
:101790000546B8BB01211C48FCF735FD04F12006C5
:1017A000074610213046FBF760FD2A4611213046DE
:1017B000FBF76CFD39463046FBF75AFD13493046BE
:1017C000FBF783FD3046FBF705FC0546D0B96034D6
:1017D00020460C21FBF749FD20460D49FBF75BFD38
:1017E000112229462046FBF751FD39462046FBF7DA
:1017F0003FFD20460749FBF768FD2046BDE8F8405D
:10180000FBF7E8BB2846F8BD843A00207C2403009F
:101810000514020080240300002202704260704719
:10182000017042607047416070470170704700006E
:101830002DE9F0410A4F05460E46002457F82410C2
:1018400028465FFA84F80DF0A2FA18B186F80080F5
:10185000BDE8F08101340E2CF0D1BDE8F08100BF6D
:10186000842403002DE9F04389B0044616220021A8
:1018700002A80CF042FA4FF6AA63ADF80830102324
:101880008DF80A30FF238DF80C30DFF8E4802378E0
:1018900065688DF80B30002458F8247038460DF038
:1018A00046FAC6B23246394628465FFA84F90CF049
:1018B000EFF918B98DF80C90354402E00134042C8E
:1018C000EAD19DF80C30032B1BD8DFF8A890002438
:1018D0006F462B789BB339462846FFF7A9FF804611
:1018E00010B1461BF6B203E028460DF020FAC6B24E
:1018F000B8F1000F0CBF2346631CC3F111039E42D5
:1019000001DD00202EE00DF10D03294618193246A5
:1019100034440CF0CCF93544E4B2B8F1000FD8D01F
:101920009DF8002008AB661C1C4459F8220004F8FE
:10193000132C0DF0FCF9F6B205443446C9E74FF616
:10194000AA613846FDF7A9FA97E806000748FBF7B1
:1019500037F80028D5D0631DDBB202AA1621034850
:10196000FAF7DAFF09B0BDE8F08300BF603D002060
:101970003825030084240300F0B50346186880F37B
:1019800008885868FF2464B2EFF30585002D01D163
:10199000A64600472546064621273FBAF0B4002454
:1019A000002500260027F0B4F92040B2004700BF10
:1019B000F0BD00BFFFF7E0BF0123037000234370B9
:1019C00043608360C3818381704708B5FFF7F4FFEC
:1019D00008BD10B50446217019B90A2008F034FE7C
:1019E000606010BD037810B5044613B9406809F073
:1019F00067F82046BDE81040FFF7DEBF0023816096
:101A00008281C3817047037870B505460C467BB967
:101A100001236B700023A4024FF47A721946B4FBC1
:101A2000F2F2686808F022FF68B94FF0FF340CE06A
:101A300003220021012008F0E9FD68600028E7D1B9
:101A40004FF0FF3070BDEC89A4B22B7800266E7089
:101A50001BB1686809F034F86E60204670BD4078AC
:101A6000704738B585899542044628BF154619B197
:101A70002A4680680CF01BF9A3682B44A360A38955
:101A80005B1BA381E38915FA83F39BB2E3812846AC
:101A900038BD406820B100231A46194608F0DEBD63
:101AA0007047A9DF7047AADF7047000010B4054BEC
:101AB000054C01290CBF214619465DF8044B0DF079
:101AC000C7B800BF612503004825030010B50446D0
:101AD00009F0FCFE0128204603D1BDE810400CF0BF
:101AE000C7B8BDE810400AF055BB10B5044609F070
:101AF000EDFE0128204603D1BDE810400CF0C0B82F
:101B0000BDE810400AF052BB2DE9F0418AB00AADA1
:101B10000E46002125F81E1D032307469046304639
:101B20002A46FFF7C0FFBDF80A00FFF7CFFF0446C3
:101B3000B8B1014603232A463046FFF7B4FF68B91F
:101B40004246394603A8FFF7B1FF70220092BDF864
:101B50000A300548224603A903F0D2FD2046FFF7CC
:101B6000C4FF0AB0BDE8F081DC3E002010B5074C90
:101B7000204603F08DFC0649204603F0D0FC2046A9
:101B80000449BDE8104003F0CABC00BFDC3E0020A1
:101B90007A2503008E250300F0B5064685B0502057
:101BA0000D461746FFF792FF0446E8B1394650222A
:101BB0000CF07DF81820FFF789FF0C4A42600022E4
:101BC00042720322027201960295039401AA03460F
:101BD000046003CAD860106858611846196105B0DE
:101BE000BDE8F0400AF044BB05B0F0BD051D0200A1
:101BF00010B58AB014460A46014603A8FFF756FFFF
:101C0000002300932246502303A9044803F0F0FC6C
:101C1000003018BF01200AB010BD00BFDC3E00201C
:101C20007FB54FF6FF739A4206460D46144619D00B
:101C30001820FFF74BFF002202604272032202725B
:101C40000196029503940849416001AA034603CA1C
:101C5000D860106858611846196104B0BDE870403A
:101C60000AF006BB04B070BD091B020038B5064D72
:101C7000064C2946204603F090FC29462046BDE844
:101C8000384003F04CBC00BF7A250300DC3E002046
:101C900038B5064D064C2946204603F07EFC294601
:101CA0002046BDE8384003F03ABC00BF8E25030053
:101CB000DC3E002010B5074C0749204603F06DFCC0
:101CC0000649204603F02BFC20460549BDE810409C
:101CD00003F025BCDC3E0020A22503007A2503008A
:101CE0008E25030000B589B00A46014601A8FFF71A
:101CF000DDFE01A9024803F050FC09B05DF804FBC9
:101D0000DC3E002030B514469BB001280CBF528A3F
:101D1000E28D0D4601460BA8FFF7C8FE20220021E8
:101D200012A80BF0EAFF202312AA29461A48FCF752
:101D30004FFB02220BA905A803F0E6FD05A803F05E
:101D400043FE18B35022214605A803F0B2FD9DF8CA
:101D500048309BB994F84910039194F84A100291C5
:101D600094F84B10019194F84C10009194F84D3078
:101D700094F84E20094912A80CF06AFF202212A9FB
:101D800005A803F096FD05A803F023FE05A803F0BF
:101D90002DFE1BB030BD00BF843A0020B1250300EA
:101DA00070B58EB00E46014607A8FFF77FFE0122F0
